:020000040800F2
:10000000E8080020810100081B1400088D1000087A
:1000100000000000000000000000000000000000E0
:100020000000000000000000000000001F14000895
:1000300000000000000000001D140008211400084A
:100040009301000893010008930100089301000840
:100050009301000893010008930100087902000849
:100060009301000893010008930100089301000820
:100070009301000893010008930100082D14000863
:100080009301000893010008930100089301000800
:1000900093010008930100089301000893010008F0
:1000A00093010008930100089301000893010008E0
:1000B00093010008930100089301000893010008D0
:1000C00000F002F800F04CF812A030C808382418EC
:1000D0002D18AC4201D100F043F80FCCA246AB463C
:1000E0000CA730CF2D1B083F3F197C427F1E544484
:1000F0002D090426F441641EAC4201D300F030F80F
:100100000126334200D0FB1A3343984754465D46DC
:10011000DFE700001C2B00003C2B0000103A02D34C
:1001200078C878C1FAD8520701D330C830C101D598
:1001300004680C6070470000704700000023002432
:1001400000250026103A01D378C1FBD8520700D30E
:1001500030C100D50B6070471FB51FBD10B510BD75
:1001600000F05AF81146FFF7F7FF01F075F900F0BB
:1001700072F803B4FFF7F2FF03BC00F075F800005B
:100180000748804707480047FEE7FEE7FEE7FEE72F
:10019000FEE7FEE704480549054A064B70470000A4
:1001A00029140008C1000008E8020020E808002027
:1001B000E8040020E8040020D2B210B513029A1817
:1001C00013049A1800F001F810BD01E004C0091FE3
:1001D0000429FBD28B0701D50280801CC90700D0FF
:1001E0000270704700290BD0C30702D00270401C78
:1001F000491E022904D3830702D50280801C891E70
:10020000E3E70022EEE70022DFE770477047704720
:1002100000487047180000207546FFF7F9FFAE460A
:10022000050069465346C008C000854618B020B591
:10023000FFF7B0FF60BCB64600260027C0C5C0C5AA
:10024000C0C5C0C5C0C5C0C5C0C5C0C5403D4908C2
:1002500049008D46704710B50446C046C04620464A
:10026000FFF787FF10BD000001491820ABBEFEE775
:10027000260002007047000008480021816001212B
:100280000160074800680A46824006480368134335
:100290000360054802680A43026070477800002046
:1002A000140000201408004814040140B0B50446AE
:1002B00000F0D6F80546601C02D004480078041906
:1002C00000F0CEF8401BA042FAD3B0BD00000020E1
:1002D000F0B589B001900A68002A00D1B5E00D465A
:1002E0005B48019B834201D0052000E004201721D8
:1002F000C9065918890A9B0559180091042900D389
:10030000009000231C461F4607950AE01143316008
:100310007F1C2A681046F8401B1DA41C002800D131
:1003200093E001260396BE403240F1D0029206933C
:1003300003200146A140C9436A68154605406B1E6B
:10034000012B059213D8049101998868049B1840E9
:10035000079BDB68A34003438B60D006C00FB84007
:100360004B68B3430E4604990343736006E0032DC4
:10037000019E03D10546069B029A20E0F0680840E2
:10038000079B9B68A3400343F360022D069B029AE0
:1003900015D11C20184004910F218140FB089B00BF
:1003A000F3181D6A8D43079E316981402943196204
:1003B0000499069B7068019E032505900540A540A1
:1003C000306808402843306005988003800F079DFF
:1003D0009ED021490868039D28430860086828408A
:1003E00008900C2018400F21814003233D469D4377
:1003F000089B1A4EAB598B43009981401943A95170
:10040000079D144EB1686868C3020BD51143B160F3
:10041000F16883020BD49143F160716883030BD4BC
:1004200091430AE09143B160F1688302F3D511432F
:10043000F16071688303F3D51143069B71603168E5
:10044000C00300D562E7914361E709B0F0BDC04643
:10045000001000480004014018100240080001404C
:10046000F14800687047C046B0B5024603464033C5
:100470005C780220202C17D11C78012C14D0242069
:100480005870106802680124A243026022030568C4
:100490009543056002680A430260016821430160D8
:1004A0000020187020215970B0BDB0B50246034637
:1004B00040335C780220202C17D11C78012C14D0FA
:1004C00024205870106802680124A24302600F22A1
:1004D000120205689543090229430160016821431E
:1004E00001600020187020215970B0BDF0B581B0B6
:1004F000002822D00446054640356878002804D1FB
:1005000000202870204600F057F9242068702068E9
:10051000026801218A4302600F2212066368934336
:1005200003618368194A13408360A368E668012E5B
:1005300006D1CE03334383600AE0012001B0F0BD51
:100540002127BF023B438360022E01D1CB024360CF
:1005500043680F4E1E434660C3681340C360226960
:1005600063691343A26912021A43C260E269236AF3
:100570001343036002680A43026000206064202184
:1005800069702063A87001B0F0BDC046FF7FFFFF17
:1005900000800002F0B589B0054606464036747802
:1005A0000220202C09D10E9C002C08D00F9F002F78
:1005B00005D006973778012F06D109B0F0BD01208C
:1005C0004102696409B0F0BD0393029205910120D4
:1005D00004903070FFF744FF08902868816909048F
:1005E00045D410990791212171704021B1700027E5
:1005F0006F64069969856C626F636949059A0A4060
:100600000399C9B20904059289184268654B1340E1
:10061000C918654A8918416028460799089C2246EE
:1006200000F0A8FE00281ED106972868039901292A
:100630000BD00299090A816228460799224600F0E8
:1006400099FE0028069F0ED128680299C9B28162DE
:10065000079B0094802100242846224600F0D8FD04
:100660000028069F1ED03770049809B0F0BD04988A
:10067000C70302E081693942B3D0FFF7F1FE089960
:10068000411A28681A29F5D381693942F2D0686C79
:10069000202108436864717000203070B0700498A5
:1006A00009B0F0BD0394059C012004904206688DBA
:1006B000000A3E4B3E49069207D028680A46416828
:1006C00017461140021DFF200DE0688D2B68029334
:1006D0005B680F460B40C1B209041943029B1B1D06
:1006E00002931346029A1943214311602885079B00
:1006F00010E0688D288529684A683A40C0B2000435
:100700001043091D069A079B104320430860688D1B
:1007100000282FD028461946089A00F02BFE002802
:1007200025D12868696A0A788262688D401E6885CA
:10073000481C6862288D401E2885698D0029079B0A
:10074000E5D00004E3D108980090802100222846DB
:1007500000F05EFD00280AD1688D000AC9D0FF2094
:100760002885296848683840091D104ACBE7049855
:1007700009B0F0BD28461946089A00F0B8FD0028D7
:10078000049800D019E728682021C1614268094B0C
:1007900013404360717003983070B07009B0F0BDC1
:1007A000FF030000009800FC002000010000FF0192
:1007B000009C00FC00E800FEB0B586B0006813495C
:1007C000884201D006B0B0BD114C206801250595C6
:1007D000A90408432060206808400090032004908A
:1007E0000020039012200290C02001900098094838
:1007F00001A9FFF76DFD6805A1680143A160A1682B
:1008000001400091009806B0B0BDC04600540040C1
:1008100014100240000400481A48007802490A688F
:10082000101808607047C046E402002080B5D74821
:10083000016810220A430260032000F005F800F06E
:1008400023F8002080BDC04670B504467D20C0005E
:100850000C4E317801F0E1FD0146D448006801F00A
:10086000DCFD00F0F9FB0125032C08D8002806D197
:100870000025E84321462A4600F01CF8746028460B
:1008800070BDC0460000002082B009480168012206
:1008900011430160016811400191019911074268FB
:1008A0000A434260406808400090009802B07047D8
:1008B00018100240002805D40322034693430A4A35
:1008C0009A1803E00C220240064BD2188007C00E93
:1008D0008901C9B28140FF238340106898430843CF
:1008E0001060704714ED00E000E400E0F0B585B062
:1008F00004468078C0074C4B4FD00120039001077D
:100900001A1F10680840029006D110680843106052
:10091000106808400490049800920191434E30689A
:10092000C00513D403980702306838433060FFF7DE
:1009300097FD05463068384208D1FFF791FD401B0E
:100940006428F7D90325284605B0F0BD0325280201
:10095000354B1968014012D06268024091420ED0B6
:100960000398000419681A6802431A601A688243DF
:100970001A6008462E4A10401860C80745D118680A
:100980002B4908406168014319600298002804D18E
:10099000009A10680199884310602068C10709D146
:1009A00081070FD4810616D481031CD4002540058D
:1009B000C9D521E0196903229143A2680A431A614B
:1009C0008107EFD5032109041A698A43E1681143BD
:1009D00019618106E8D519691022914322690A43F9
:1009E0001A618103E2D5196980229143A2690A4301
:1009F0001A6100254005A6D5186940218843616920
:100A000001431961284605B0F0BDFFF729FD0646F0
:100A1000604F054B18688007B1D4FFF721FD801B9C
:100A2000B842F6D98FE7C04620100240007000405F
:100A3000FFFCFFFFF0B581B0002846D00446534AC2
:100A40001368012003408B4208D213680126B34388
:100A50000B431360126832408A4237D100912168FB
:100A60008A074B4B10D54A0706D5072212021B688E
:100A70001343474A1360464B1A68F0239A43A3680E
:100A80001343434A1360424BC90722D13F490868C8
:100A900001263040009A904205D90868B0430860AA
:100AA0000868C00712D12078400706D50720000249
:100AB00019688143E068084318601A681007810FBD
:100AC0003548022912D2044650E00126304601B0D2
:100AD000F0BD616803290DD01A1F02290FD001292A
:100AE00012D1126892030646F0D511E0032926D1EF
:100AF0002A4C3BE01A6B92030646E7D508E01268E1
:100B000092010646E2D503E0126892070646DDD55B
:100B100018680326B04308431860FFF7A1FC074696
:100B20001C4D1B4B18680C210140606880008142FD
:100B3000ACD0FFF795FCC01BA842F2D9C6E7032151
:100B4000CB031349896A0F240C401549095D9402AF
:100B50001A40240F134D2C5D9A4202D033049A425E
:100B600000E00E4801F059FC4443094B18680006A8
:100B7000000F0D49085CC4400C4804600320FFF7D7
:100B800063FE0026304601B0F0BDC04600200240A2
:100B9000041002408813000000127A00006CDC028E
:100BA000202C0008102C000810260008100000203F
:100BB000F0B587B004460120002C00D145E2049036
:100BC0002078C007F94E05940CD071680C200140C4
:100BD000042900D090E03068800303D560680028C5
:100BE00000D120E12078800721D570680007800FB0
:100BF0000ED070680C210140082900D09DE0032030
:100C0000C003716801400120C003814200D094E01C
:100C100030688007059C03D5E068012800D002E118
:100C20003068F82188432169C90001433160059C7F
:100C30002078000724D42078400737D42078C006D5
:100C400000D4D3E005984069411D00D1C2E00128DD
:100C500000D030E1706B042101437163706B01219E
:100C600001437163FFF7FCFB0546706B800700D5FD
:100C7000B4E0FFF7F5FB411B03200229F5D9E4E1BD
:100C8000706AE169002900D181E0012108437062A6
:100C9000FFF7E6FB0546706A8007CCD4FFF7E0FB60
:100CA000401B0228F7D9032007B0F0BD01200390B4
:100CB0000107F0690840029006D1F0690843F0612D
:100CC000F0690840069006980191E14F3868C00528
:100CD0004AD403980402386820433860FFF7C0FB09
:100CE0000546386820423FD1FFF7BAFB401B642815
:100CF000F7D9032007B0F0BD71680140082908D179
:100D00000320C0037168014001200004814200D12A
:100D100061E7616801204704002900D117E1052936
:100D200000D12BE1012900D12CE1010432688A4372
:100D3000326081043068884327E13068059CE168AF
:100D4000002936D0012108433060FFF789FB0546B2
:100D50003068800700D563E7FFF782FB401B02285D
:100D6000F6D9032007B0F0BD05988068002800D1AF
:100D7000B6E0052800D1C9E0012800D1CAE0306AF8
:100D8000039988433062306A04218843C5E0012119
:100D900088437062FFF764FB0546706A800700D4E1
:100DA00049E7FFF75DFB401B0228F6D9032007B097
:100DB000F0BD012188433060FFF752FB05463068E3
:100DC000800700D433E7FFF74BFB411B03200229C8
:100DD000F5D93AE1706B042188437063706BF82198
:100DE000884305998969C9000143716305980078B2
:100DF00080060BD571680C2001400C2939D1706B2D
:100E0000800303D50598006A01280CD10598446A2F
:100E1000002C00D1E1E070680C210140082905D1C7
:100E2000012C00D0C4E0049807B0F0BD01200206F8
:100E300031680492914331604706FFF711FB054684
:100E4000022C0BD1049C3068384200D1DEE0FFF761
:100E500007FB411B03200229F5D9F6E03068384230
:100E600000D1BAE0FFF7FCFA411B03200229F5D9B3
:100E7000EBE071680140082905D10320C0037168C7
:100E800001408142BBD0706B0599096A002900D1ED
:100E9000A9E001210A04104370634C04FFF7E0FA53
:100EA0000546706B2042B1D1FFF7DAFA411B0320EF
:100EB0000229F6D9C9E0706B042101437163706B9C
:100EC000012188437063FFF7CBFA0546706B8007FA
:100ED0008CD5FFF7C5FA411B03200229F6D9B4E0EF
:100EE000306A039988433062306A04218843306253
:100EF000584CFFF7B5FA0546306A80071DD5FFF755
:100F0000AFFA411B0320A142F6D99EE0306A0421CA
:100F100001433162306A0399084330624D4CFFF758
:100F20009FFA0546306A800707D4FFF799FA401BFD
:100F3000A042F7D9032007B0F0BD02980028059C15
:100F400000D07BE6F06901998843F06176E6010400
:100F500032688A4332608004316881433160FFF730
:100F60007FFA0546059C3068384200D13AE6FFF723
:100F700077FA411B03206429F5D966E081043268C1
:100F80000A4332600104306808433060FFF768FAB2
:100F900005463068384200D024E6FFF761FA401B6E
:100FA0006428F6D9032007B0F0BDC0460010024007
:100FB0000320C20370680240F16A059CA36A9A424A
:100FC000049D0DD10F221140236B994208D1910449
:100FD0000840E16A8842284637D1002007B0F0BDBA
:100FE000284607B0F0BD01210A04904370634C0409
:100FF000FFF736FA0546706B204200D106E7FFF78F
:101000002FFA411B03200229F5D91EE0F06A0F21B7
:101010008843059A116B0143F1627B20C00371681C
:101020008143D06A0843916A01437160306820436C
:101030003060FFF715FA044630683842CDD1FFF72B
:101040000FFA011B03200229F6D907B0F0BDC046F4
:101050000070004088130000401E010E01D00120E6
:1010600070470749074A5060074803680B4003214F
:1010700089075918016000209060072111607047AE
:10108000FFFFFF0010E000E020ED00E0FEE70000C1
:10109000F0B585B00E460446403004902068816962
:1010A000C90606D400210F4601258269D30545D41F
:1010B00048E01021C1618169890637D4711C32D0A2
:1010C00015460120002E6CD186030390C7030297BA
:1010D000FFF7C6F9206842680499897883693B4222
:1010E00009D0324007D1202905D041683143416001
:1010F000FFF7B6F9054620688169890605D4FFF730
:10110000AFF9401B1A28F6D376E081698906029F61
:10111000DED50BE08169890608D48169890605D48A
:101120008169890602D481698906F3D52021C161CC
:101130000127042101258269D30503D52B02C36150
:1011400029432F466B02560506D41A420AD1002FB6
:101150000BD1002005B0F0BDAD02C56108252943C3
:101160001A4202D0C361022211438269920701D55B
:10117000002282628269D20703D18269012313436C
:1011800083614268214B13404360606C0843606494
:10119000202004994870002008708870012005B054
:1011A000F0BD810302910390C0030190019F02E012
:1011B00081698906BAD4FFF753F9411B2068B1420F
:1011C000F6D942680499897883693B420BD0029B27
:1011D0001A4008D1202906D04168029A1143416083
:1011E000FFF73EF90546206881698906E0D4FFF7DC
:1011F00037F9401B1A28F6D3206881692421039F00
:1012000001258269D30599D49CE7C04600E800FE19
:10121000F0B583B01C4615460E460746036899692B
:101220003140891B4A424A410020AA4234D1611C04
:101230002BD0002C32D10446FFF712F938688169AF
:101240003140891B4A424A41AA4240D0806930401D
:10125000801B41424141A942EED0204603B0F0BD7F
:1012600099693140891B4A424A41AA4214D199697D
:101270003140891B4A424A41AA420DD19969314005
:10128000891B4A424A41AA4206D199693140891BC9
:101290004A424A41AA42E3D003B0F0BD0190089807
:1012A000029006E080693040801B41424141A942E2
:1012B0001AD1FFF7D5F80299411A3868A142F1D93D
:1012C00081693140891B4A424A41AA42EAD13846E3
:1012D0004030796C20221143796442700021017002
:1012E0008170012003B0F0BD019803B0F0BDF0B5EE
:1012F00081B00546006880690024800622D4164625
:101300000F46002903D129E0806980061AD42846B7
:1013100039463246FFF7BCFE002827D1FFF7A0F878
:10132000811B2868B942EFD981698906ECD4284627
:101330004030696C202211436964427000210170C1
:1013400081700124204601B0F0BDFFF789F82868BC
:1013500081698906EBD580698006F3D4002428468C
:1013600021463246FFF794FE0028EED001242046A5
:1013700001B0F0BDF0B581B0054600688069002479
:10138000800716D416460F46481C19D0002F26D1C8
:101390000024284621463246FFF77AFE002838D13D
:1013A000FFF75EF828688169890728D5806980077A
:1013B000EED5204601B0F0BD286880698007F8D4DA
:1013C0000024E14328463246FFF762FE0028F3D0AE
:1013D0000124204601B0F0BD80698007E9D4284689
:1013E00039463246FFF754FE002812D1FFF738F88D
:1013F000811B2868B942EFD981698907ECD4284656
:101400004030696C202211436964427000210170F0
:1014100081700124204601B0F0BDFEE7704770479F
:1014200080B5FFF7F9F980BD7047000008480068F3
:10143000F5490122CA604009134683434B6088681E
:10144000401C886003480168914301607047C046B2
:101450001004004810000040A0B0FFF7E7F913AEF9
:10146000301D3021FEF7CFFE00241C941020049084
:10147000179001271697022513950E940D940C943E
:101480000B940A9409943046FFF792FB002803D08E
:10149000EFF3108072B6FEE7029503971294119451
:1014A000109407260F960FA82146FFF7C3FA0028CD
:1014B00003D0EFF3108072B6FEE70C942025089558
:1014C00008A8FFF713FA002803D0EFF3108072B6D4
:1014D000FEE70095039A9504CA4F386828433860A0
:1014E000C949CA618C61C9484861C94808613868FE
:1014F0000C624C628C62CC620C632840139013988F
:101500000C4610342046FEF7F1FF002803D0EFF31D
:10151000108072B6FEE700212046FEF7A5FF0028E6
:1015200003D0EFF3108072B6FEE700212046019150
:10153000FEF7BBFF002803D0EFF3108072B6FEE782
:10154000FFF774F913AC201D3021FEF75CFE019902
:101550001C910498179003981690029813900E917E
:101560000D910C910B910A9109912046FFF720FBF8
:10157000002803D0EFF3108072B6FEE72C46019DE1
:101580001295119510950F960FA82946FFF752FA5C
:10159000002803D0EFF3108072B6FEE70C95009898
:1015A000089008A8FFF7A2F9002803D0EFF31080F5
:1015B00072B6FEE77868039E30437860386820434F
:1015C0003860B005B9680143B960F0043968014377
:1015D000396090480168049A11430160C168114361
:1015E000C1608D480168314301608C4980200860EA
:1015F0008B4908688B4A1040B707C019086005225C
:101600001003894C21460C390B6803430B600868B2
:10161000864B184008600868854B18400860100425
:101620000A6802430A600868824A10400860086835
:10163000814A104008602346083B18687F490840EB
:101640000A46186018687A490840186018687C4D86
:10165000284018601868754908401860186879496A
:10166000084018601868784908401860201F016811
:10167000114001600168294001600168734B194005
:1016800001600168724A1140016020686B4908409E
:10169000206020686649084020602068284020605B
:1016A000206862490840206020681040206020685F
:1016B00061490840206020681840206020685D492A
:1016C000084020604F498868304388606148B862AC
:1016D000FA20F862F8683043F860F0034F49086078
:1016E0004F4A90684F490840F107401890605A48A7
:1016F0000168544A114001600168534A1140016079
:10170000B10202688A430260F10202688A43026001
:1017100038683043386000F0D9FA304600F0B4F948
:1017200000F028FC384E019830607060504C544FE7
:1017300000E0354EB068042801DB0198306047486E
:101740000A904748099047480890474911914749EE
:1017500010910F900125284600F096F914200521DC
:1017600000F002FC7068012807D107200522002341
:10177000014600F095F908A806E00720052200239D
:10178000014600F081F80FA806CC0023083C00F0C9
:1017900025FE38481690384815903848149013970D
:1017A000314807903148069005971420112100F028
:1017B000DBFB3068012807D1072014210522002314
:1017C00000F06EF913A806E007201421052200237B
:1017D00000F05AF805A806CC00263346083C00F075
:1017E000FDFD0948C0680128A3D100F0C3FB0648ED
:1017F000C6602448006885400B498868A843886013
:1018000097E7C04614100240780000200E0900201F
:1018100000540040000401400C00014000E100E0E1
:1018200004E400E0FFFFFF000C080048FF7FFFFF1B
:10183000FFDFFFFFFFFFF7FFFFFFFDFFFFEFFFFFF2
:10184000FFBFFFFFFFFEFFFFFFFDFFFFFFFFFBFFEF
:10185000FFFFFEFF3F1F0000000400486B656E00A5
:101860003A2054615061726B707479003A20456D72
:101870000800002065640000746563743A204465C4
:101880004761746514000020F0B589B00293089098
:1018900040B2002800D5F5E01F2900D9F2E0500041
:1018A00002231B1A57421F20C001049000260191F9
:1018B00004E00346012C274600DBE3E006937018A2
:1018C000C2B2089BDB1BDCB207945BB20593002B12
:1018D0001ED41F2A1CD800960723184001252E4627
:1018E0008640029B012B2BD11401049B1C40079BBB
:1018F000E418F54B1D5D35431D55089BFB185CB284
:10190000002C40D40025009EDBB2002C40D54DE0D9
:10191000089BFB185CB2002C04D40025DBB2002C21
:1019200004D543E00125DBB2002C3FD41F2A3DD86B
:101930000724204001248440029801281AD12BE07A
:101940001301049C2340079C1B19DF4CE45CB44347
:10195000DD4EF454089BFC1863B2002B00D4002524
:10196000E4B20394002B009E21D41F2A1FD8012427
:101970008440039B1001049A10400393C018D24B7B
:101980001A5CA24310E00125009EDBB2002C0DD4AE
:101990001F2A0BD8012484401001049A104003939D
:1019A000C018C94B1A5C22431A5400E00393334613
:1019B0008A1BD0B2002D16D11F2814D8072422402C
:1019C0000126354695400299012921D1000104994B
:1019D000084003994118BC4C625C2A436254059943
:1019E00000290FD52FE0059900292CD41F282AD8CB
:1019F00007210A40012595400299012919D10001CA
:101A00000499084007994018AF4A115C294319E02E
:101A1000040104990C4003996118AB4C645CAC431D
:101A2000A94D6C54059900290DD41F280BD8964058
:101A300000E02E4600010499084007994018A24A88
:101A4000115CB14311541E460699994201DD0846C6
:101A500008E0761C70000818401CFE4202D1B94212
:101A600000DC00217A1CB942144600DC3C46B94235
:101A7000019900DC1DE752008018431C012C274609
:101A800000DA1BE709B0F0BD80B5002801D102469D
:101A900000E0FF22012041028B48FEF78DFB80BD54
:101AA000F0B589B00191009040B2002800D508E15E
:101AB00001981F2800D904E1500002210C1A50425D
:101AC00005901F20C0010690012B7BD100257E4E82
:101AD00004E004460129059100DBF2E0039401983B
:101AE000431B02952F18FCB2A34206DD039B029D07
:101AF000AB421ADD1846059C21E00099059A501862
:101B00008A1AD1B2884228DD781EC0B28342EDDC49
:101B1000B81EC0B28342E9DCF81EC0B28342E5DCE5
:101B20003F1FF8B28342EFDDE0E76D1C6800181834
:101B3000401C059CE54202D1A34200DC0023621C4C
:101B4000A342114600DC2146A342C2DD52008018A8
:101B5000441C01290591C1DBB3E00491079308926D
:101B600005E07F1EFCB2079BA342089ABEDCF9B2D7
:101B70001F29114610D94B1EDBB29842F1DC8B1E97
:101B8000DBB29842EDDCCB1EDBB29842E9DC091FE8
:101B9000CBB29842EFDDE4E7240106990C4007231D
:101BA0003B4001219940049B089D03E06D1EEBB270
:101BB0009842D6DC6AB2002AF8D41A19B35C0B43F7
:101BC000B354F3E70022E74E04E00446029A0129E9
:101BD000059176DA03940198851A02921218D4B20C
:101BE000A54206DD039B02998B421ADD1846059C2F
:101BF00022E00099059B5818CF1AF9B288422ADDD5
:101C0000501EC0B28542EDDC901EC0B28542E9DCB8
:101C1000D01EC0B28542E5DC121FD0B28542EFDD96
:101C2000E0E7491C48001818401C059CE14202915D
:101C300002D1A34200DC0023621CA342114600DC57
:101C40002146A342C1DD52008018441C029A01299A
:101C50000591BFDB35E004910895079705E0521E1A
:101C6000D4B20899A142079FBCDCD1B21F2911D977
:101C70003C46611EC9B28842F1DCA11EC9B288424D
:101C8000EDDCE11EC9B28842E9DC241FE1B28842E2
:101C9000EFDDE4E7240106990C4007211140012300
:101CA0008B40DD43049B394603E0491ECBB298428A
:101CB000D5DC4FB2002FF8D41B19F75C2F40F75436
:101CC000F3E709B0F0BDC046E4000020F0B585B0F0
:101CD0006420FEF7EBFAA6480024047004A8AE21A5
:101CE0000170E643012500A961C19D487827394666
:101CF00022462B46FEF74EFC04A8202103910170DA
:101D000000A961C1FB48394622462B46FEF742FC3A
:101D100004A8047000A961C1F648394622462B4642
:101D2000FEF738FC04A8B021017000A961C1F14898
:101D3000394622462B46FEF72DFC04A8C821017027
:101D400000A961C1EB48394622462B46FEF722FC2A
:101D500004A8047000A961C1E648394622462B4612
:101D6000FEF718FC04A81021017000A961C1E14828
:101D7000394622462B46FEF70DFC04A8402101708F
:101D800000A961C1DB48394622462B46FEF702FC1A
:101D900004A88121017000A961C1D64839462246B4
:101DA0002B46FEF7F7FB04A8FF21017000A961C1D3
:101DB000D048394622462B46FEF7ECFB04A8A12169
:101DC000017000A961C1CB48394622462B46FEF777
:101DD000E1FB04A8A621017000A961C1C5483946EC
:101DE00022462B46FEF7D6FB04A8A821017000A9C5
:101DF00061C1C048394622462B46FEF7CBFB04A8FA
:101E00001F21017000A961C1BA48394622462B46FC
:101E1000FEF7C0FB04A8A421017000A961C1B54868
:101E2000394622462B46FEF7B5FB04A8D3210170A4
:101E300000A961C1AF48394622462B46FEF7AAFBEE
:101E400004A8047000A961C1AA48394622462B465D
:101E5000FEF7A0FB04A8D521017000A961C1A54827
:101E6000394622462B46FEF795FB04A8F021017067
:101E700000A961C19F48394622462B46FEF78AFBDE
:101E800004A8D921017000A961C19A4839462246A7
:101E90002B46FEF77FFB04A82221017000A961C137
:101EA0009448394622462B46FEF774FB04A8DA21F3
:101EB000017000A961C18F48394622462B46FEF7C2
:101EC00069FB04A80221017000A961C18948394653
:101ED00022462B46FEF75EFB04A8DB21017000A919
:101EE00061C18448394622462B46FEF753FB04A8BD
:101EF0000399017000A961C17E48394622462B46EC
:101F0000FEF748FB04A88D21017000A961C1794842
:101F1000394622462B46FEF73DFB04A814210170EA
:101F200000A961C17348394622462B46FEF732FBB1
:101F30000F48057004A8AF21017000A961C16D4868
:101F4000394622462B46FEF725FB69026A48FEF712
:101F50005AF900F00FF806488480448005B0F0BDBF
:101F600088000020E4000020014A918050807047E2
:101F7000DC000020F0B58DB00AA90691B0200870F1
:101F80000027FD43012400A832C05A487826314674
:101F90003A462346FEF7FEFA0BA80590077000A903
:101FA00031C1544831463A462346FEF7F3FA0CA9AC
:101FB000049110200790087000A832C04D483146A7
:101FC0003A462346FEF7E6FA0295802009900190F2
:101FD0004948009040220892464831462346FEF781
:101FE000D9FAB1200699087000A832C0414831469C
:101FF0003A462346FEF7CEFA0598077000A931C18C
:102000003C4831463A462346FEF7C4FA07980499FD
:10201000087000A832C0374831463A462346FEF7DA
:10202000B9FAED4880300090099801900295314846
:102030003146089A2346FEF7ADFAB2200699087099
:1020400000A832C02B4831463A462346FEF7A2FA92
:102050000598077000A931C1264831463A46234603
:10206000FEF798FA04980799017000A931C1214838
:1020700031463A462346FEF78DFA2002D649081823
:1020800000900998019002951A483146089A234613
:10209000FEF780FAB3200699087000A832C01548F0
:1020A00031463A462346FEF775FA0598077000A9AF
:1020B00031C1104831463A462346FEF76BFA07987D
:1020C0000499087000A832C00A4831463A462346AF
:1020D000FEF760FA0320C001BF4908180090099874
:1020E0000190029503483146089A2346FEF752FABA
:1020F0000DB0F0BD88000020E4000020F0B592B0E3
:102100000F9315465E22D24303467F3B0024934241
:1021100000D25CE1AF4B5A88CEB20D920596B6184C
:10212000802E00D953E10A0A9B88D7B2FA18202AD8
:1021300000D94CE100960190002F00D143E10598B1
:10214000002800D13FE10198203878430490032013
:10215000014006910598401A0B9001200390C0039E
:102160001090002202950893079709E00C9A1140FD
:102170001954099A521C079FBA42089B00D122E1C8
:10218000D018C1B21F29F5D8049951184900695ACD
:10219000119101011F23DB010B400721014003982E
:1021A0008840FF210A9041400C91059804280E9325
:1021B000099204D2002706980028DBD098E000217D
:1021C00007E00C9A14406C54591C0B9A914200D1B0
:1021D00087E008460D990F18802439462140109D4C
:1021E000C540FBB2119A15420BD0002915D10E99AA
:1021F0005918794D6B5C0F9A012A0BD10A9A134337
:102200000AE0002909D10E995918734D6B5C0F9A99
:10221000002AF3D00C9A13406B54431C0D995918A3
:10222000109ADA40CDB22140119E32420BD00029E3
:1022300015D10E996918684E755C0F9A012A0BD159
:102240000A9A15430AE0002909D10E996918624ECD
:10225000755C0F9A002AF3D00C9A15407554B91C7E
:102260005B1C109ADA40CDB22140119E32420BD055
:10227000002915D10E996918574E755C0F9A012ADD
:102280000BD10A9A15430AE0002909D10E99691861
:10229000514E755C0F9A002AF3D00C9A1540755474
:1022A000F91C0C405B1C109ADA40CDB211990A421D
:1022B00009D0002C88D10E996918474D6C5C0F9A93
:1022C000012A0BD07DE7002C00D07DE70E9969181C
:1022D000414D6C5C0F9A002A00D072E70A9A1443B1
:1022E00071E7071D029D099A0698002800D141E771
:1022F0000D983C18802021460140109AFA40E3B224
:10230000119E32420BD0002915D10E995918324E28
:10231000735C0F9A012A0BD10A9A13430AE0002931
:1023200009D10E9959182C4E735C0F9A002AF3D0DC
:102330000C9A1340735406990129099A00D119E7A0
:10234000611CCBB20140119ABA40174652040BD51A
:10235000002915D10E9959181F4E735C0F9A012A46
:102360000BD10A9A13430AE0002909D10E99591892
:10237000194E735C0F9A002AF3D00C9A13407354D1
:1023800006990229099A00D1F4E6A11C0840CBB2B3
:10239000B9040AD5002800D0ECE60E9818180E4BA8
:1023A000195C0F9A012A0BD0E0E6002800D0E1E684
:1023B0000E981818084B195C0F9A002A00D0D5E621
:1023C0000A9A1143D4E6034800994180019C2046B3
:1023D00012B0F0BDDC000020E4000020F0B581B0B8
:1023E0000E46074600780021002813D01C461546EB
:1023F0000091C0B231462A462346FFF77FFE0146D0
:102400003878814207D178787F1C0028F1D1009874
:1024100001B0F0BD084601B0F0BD43088B421AD3AD
:10242000002203098B4279D3030A8B425ED3030B4C
:102430008B4242D3030C8B4227D30902FF2212BAEC
:10244000030C8B4202D31212090203D0030B8B42FE
:1024500033D31AE0D3E0411A8041401C7047034651
:102460000B4371D443088B42F5D3002203098B42FE
:1024700054D3030A8B4239D3030B8B421DD3030C75
:102480008B4202D394466EE0090AC30B8B4201D300
:10249000CB03C01A5241830B8B4201D38B03C01A6A
:1024A0005241430B8B4201D34B03C01A5241030BE1
:1024B0008B4201D30B03C01A5241C30A8B4201D392
:1024C000CB02C01A5241830A8B4201D38B02C01A3D
:1024D0005241430A8B4201D34B02C01A5241030AB4
:1024E0008B4201D30B02C01A5241CDD2C3098B4299
:1024F00001D3CB01C01A524183098B4201D38B0116
:10250000C01A524143098B4201D34B01C01A5241B8
:1025100003098B4201D30B01C01A5241C3088B42FD
:1025200001D3CB00C01A524183088B4201D38B00E8
:10253000C01A524143088B4201D34B00C01A52418A
:10254000411A524110007047CA0F00D0494203108F
:1025500000D34042534000229C4603098B422DD3B6
:10256000030A8B4212D38901FC2212BA030A8B425E
:102570000CD3890192118B4208D3890192118B42AD
:1025800004D3890137D0921100E08909C3098B4235
:1025900001D3CB01C01A524183098B4201D38B0175
:1025A000C01A524143098B4201D34B01C01A524118
:1025B00003098B4201D30B01C01A5241C3088B425D
:1025C00001D3CB00C01A524183088B4201D38B0048
:1025D000C01A5241D9D243088B4201D34B00C01AD2
:1025E0005241411A00D201465241104663465B10E7
:1025F00000D34042704763465B1000D3404201B5B0
:102600000021004201D0C9430846C046C04602BD71
:102610000000000000000000010203040607080992
:1026200000000000000000000000000000000000AA
:1026300000200020002000200020000000200000DA
:10264000005000500050000000000000000000009A
:102650000050005000F8005000F8005000500000FA
:102660000020007800A00070002800F0002000008A
:1026700000C000C8001000200040009800180000B2
:10268000004000A000A0004000A8009000680000EA
:10269000003000300020004000000000000000007A
:1026A000001000200040004000400020001000000A
:1026B000004000200010001000100020004000002A
:1026C000002000A8007000F8007000A800200000A2
:1026D00000000020002000F8002000200000000082
:1026E000000000000000000000300030002000006A
:1026F00000000000000000F80000000000000000E2
:102700000000000000000000000000300030000069
:1027100000000008001000200040008000000000C1
:1027200000700088009800A800C8008800700000B1
:102730000020006000200020002000200070000029
:1027400000700088000800700080008000F8000021
:1027500000F8000800100030000800880070000039
:10276000001000300050009000F800100010000031
:1027700000F8008000F000080008008800700000E9
:1027800000380040008000F00088008800700000E1
:1027900000F8000800080010002000400080000041
:1027A00000700088008800700088008800700000B9
:1027B00000700088008800780008001000E0000029
:1027C00000000000002000000020000000000000C9
:1027D0000000000000200000002000200040000059
:1027E0000008001000200040002000100008000039
:1027F0000000000000F8000000F8000000000000E9
:1028000000400020001000080010002000400000E0
:102810000070008800080030002000000020000048
:102820000070008800A800B800B0008000780000A8
:10283000002000500088008800F800880088000010
:1028400000F00088008800F00088008800F0000098
:102850000070008800800080008000880070000008
:1028600000F00088008800880088008800F00000E0
:1028700000F80080008000F00080008000F8000078
:1028800000F80080008000F00080008000800000E0
:1028900000780088008000800098008800780000A0
:1028A00000880088008800F8008800880088000000
:1028B0000070002000200020002000200070000098
:1028C00000380010001000100010009000600000A0
:1028D0000088009000A000C000A0009000880000C8
:1028E00000800080008000800080008000F80000F0
:1028F000008800D800A800A800A800880088000070
:102900000088008800C800A800980088008800009F
:10291000007000880088008800880088007000002F
:1029200000F00088008800F0008000800080000037
:10293000007000880088008800A8009000680000EF
:1029400000F00088008800F000A0009000880000DF
:10295000007000880080007000080088007000008F
:1029600000F800A800200020002000200020000027
:1029700000880088008800880088008800700000B7
:10298000008800880088008800880050002000002F
:1029900000880088008800A800A800A80050000057
:1029A0000088008800500020005000880088000047
:1029B0000088008800500020002000200020000037
:1029C00000F80008001000700040008000F80000CF
:1029D00000780040004000400040004000780000C7
:1029E00000000080004000200010000800000000EF
:1029F00000780008000800080008000800780000BF
:102A000000200050008800000000000000000000CE
:102A100000000000000000000000000000F80000BE
:102A200000600060002000100000000000000000B6
:102A300000000000006000100070009000780000AE
:102A40000080008000B000C8008800C800B000000E
:102A50000000000000700088008000880070000006
:102A600000080008006800980088009800680000CE
:102A7000000000000070008800F800800070000076
:102A8000001000280020007000200020002000001E
:102A90000000000000700098009800680008000026
:102AA0000080008000B000C8008800880088000016
:102AB00000200000006000200020002000700000C6
:102AC00000100000001000100010009000600000D6
:102AD00000800080009000A000C000A000900000D6
:102AE0000060002000200020002000200070000076
:102AF0000000000000D000A800A800A800A8000066
:102B00000000000000B000C80088008800880000B5
:102B1000000000000070008800880088007000003D
:102B20000000000000B000C800C800B00080000035
:102B3000000000000068009800980068000800008D
:102B40000000000000B000C800800080008000008D
:102B500000000000007800800070000800F0000015
:102B60000020002000F800200020002800100000B5
:102B700000000000008800880088009800680000BD
:102B8000000000000088008800880050002000003D
:102B9000000000000088008800A800A80050000085
:102BA0000000000000880050002000500088000055
:102BB00000000000008800880078000800880000FD
:102BC0000000000000F800100020004000F80000A5
:102BD0000010002000200040002000200010000015
:102BE0000020002000200000002000200020000025
:102BF00000400020002000100020002000400000C5
:102C0000004000A8001000000000000000000000CC
:102C100002030405060708090A0B0C0D0E0F10101D
:102C20000102030405060708090A0B0C0D0E0F101C
:102C3000502C000800000020180000001C010008B3
:102C4000682C000818000020D00800003C01000893
:102C50000100000004000000060800002026000813
:082C600000127A0006000000DA
:04000005080000C12E
:00000001FF
